:100000000C9458000C9480000C9480000C94800098
:100010000C9480000C9480000C9480000C94800060
:100020000C9480000C9480000C9480000C94800050
:100030000C9480000C9480000C9480000C94800040
:100040000C9492030C9480000C9480000C9480001B
:100050000C9480000C9480000C9480000C94800020
:100060000C94DC030C9480000000000025002800A4
:100070002B00040404040404040402020202020229
:10008000030303030303010204081020408001025C
:1000900004081020010204081020000000080002DB
:1000A0000100000304070000000000000000FB0442
:1000B00011241FBECFEFD8E0DEBFCDBF11E0A0E01E
:1000C000B1E0E4E1FDE002C005900D92AE33B1076E
:1000D000D9F722E0AEE3B1E001C01D92A931B20729
:1000E000E1F710E0C8E5D0E004C02197FE010E94CE
:1000F0008206C735D107C9F70E941D050C948806F2
:100100000C94000008950895AF92BF92CF92DF92B1
:10011000EF92FF920F931F93CF93DF936C017B01BC
:100120008B01040F151FEB015E01AE18BF08C0174D
:10013000D10759F06991D601ED91FC910190F081C0
:10014000E02DC6010995892B79F7C501DF91CF9183
:100150001F910F91FF90EF90DF90CF90BF90AF90E5
:10016000089590E0FC01E656FF4F2491FC01EA5708
:10017000FF4F3491FC01EE58FF4FE491EE23C9F09C
:10018000222339F0233001F1A8F4213019F1223073
:1001900029F1F0E0EE0FFF1FE859FF4FA591B49150
:1001A0008FB7F894EC91611126C030953E233C93B3
:1001B0008FBF08952730A9F02830C9F0243049F7BF
:1001C000809180008F7D03C0809180008F77809325
:1001D0008000DFCF84B58F7784BDDBCF84B58F7D82
:1001E000FBCF8091B0008F778093B000D2CF809109
:1001F000B0008F7DF9CF3E2BDACF3FB7F8948091D6
:10020000A3019091A401A091A501B091A60126B5EA
:10021000A89B05C02F3F19F00196A11DB11D3FBF3E
:10022000BA2FA92F982F8827BC01CD01620F711D0D
:10023000811D911D42E0660F771F881F991F4A9507
:10024000D1F708958F929F92AF92BF92CF92DF9293
:10025000EF92FF924B015C010E94FD006B017C015B
:100260000E94FD006C197D098E099F09683E73404C
:1002700081059105A8F321E0821A9108A108B1082F
:1002800088EEC80E83E0D81EE11CF11C8114910495
:10029000A104B10429F7FF90EF90DF90CF90BF90B9
:1002A000AF909F908F900895089520917F01260F21
:1002B0003327331F21323105ECF42091D701FC01A3
:1002C00090E080E0243069F082E00895A0917F0101
:1002D0002191AC01415A5E4FA40FB52FB11D2C9353
:1002E0000196861798F380917F01680F60937F01D4
:1002F00080E0089581E008951092D70181E0809315
:10030000D6011092B10161E082E10E94B10061E08A
:1003100083E10E94B100E9EBF0E080818E7F808371
:1003200080818D7F808388E48093B80085E480930A
:10033000BC000895CF93DF9391E090935E018823F2
:10034000B9F0C091B800D091BA008091BC008A7B0E
:100350008093BC0060E082E10E94B10060E083E134
:100360000E94B1000E947C01D093BA00C093B800F3
:10037000DF91CF9108950895E091AC018091AB0198
:10038000E81730F4F0E0E25CFE4F808190E00895E1
:100390008FEF9FEF08959091AC018091AB012FEF0B
:1003A0003FEF981748F4E92FF0E0E25CFE4F208120
:1003B00030E09F5F9093AC01C90108958091AB013B
:1003C0009091AC01891B990B0895CF92DF92EF9227
:1003D000FF920F931F93CF93DF937C01CB018A0190
:1003E00020910002222389F0EB016B01C40ED51E7F
:1003F000CC15DD0569F06991D701ED91FC91019073
:10040000F081E02DC7010995F3CF642F0E945501BB
:10041000C801DF91CF911F910F91FF90EF90DF9076
:10042000CF900895CF93DF931F92CDB7DEB7698346
:10043000209100022223F9F02091FD01203258F092
:1004400021E030E0FC013383228390E080E00F90D4
:10045000DF91CF9108958091FE01E82FF0E0E35203
:10046000FE4F998190838F5F8093FE018093FD0101
:1004700081E090E0ECCF61E0CE0101960E94550151
:10048000F7CFCF92DF92EF92FF920F931F93CF930C
:10049000DF937B01FC01C48181E080930002C09363
:1004A000FF011092FE011092FD01FB01608181E0CD
:1004B00092E00E941202F701618181E092E00E94C5
:1004C0001202D091FD01D13208F092C00E94FD00CD
:1004D0006B017C018091D701811165C082E080931E
:1004E000D70181E08093D6018FEF8093D5011092E0
:1004F000D401D093D301ADEDB1E0E3EBF1E080E0C6
:10050000D81385C01092B2018091B201CC0FC82BD4
:10051000C093B2018091B101813009F07CC010928A
:10052000B1010E94FD006B017C018091B2018093BA
:10053000BB008091D9019091DA01A091DB01B091CB
:10054000DC01892B8A2B8B2B99F00E94FD000091F6
:10055000D9011091DA012091DB013091DC016C1995
:100560007D098E099F090617170728073907E0F14B
:100570008091BC0083FDD9CF85EC8093BC000E94A4
:10058000FD006B017C018091D701823009F445C0E8
:100590008091D5018F3F61F18091D501803241F189
:1005A0008091D50125C08091D9019091DA01A09167
:1005B000DB01B091DC01892B8A2B8B2B09F48ACFCC
:1005C0000E94FD000091D9011091DA012091DB0118
:1005D0003091DC016C197D098E099F0906171707F8
:1005E0002807390708F076CF8091D8010E949A0138
:1005F0001092FE011092FD0110920002DF91CF9146
:100600001F910F91FF90EF90DF90CF9008959D91F3
:1006100091938F5F75CF85EEB0CF8091D901909186
:10062000DA01A091DB01B091DC01892B8A2B8B2BA5
:1006300009F4A9CF0E94FD000091D9011091DA01BF
:100640002091DB013091DC016C197D098E099F0935
:10065000061717072807390708F095CFC5CFCF939E
:10066000DF9300D0CDB7DEB790E899838A83BE01CF
:100670006F5F7F4F8DE092E00E9441020F900F90DC
:10068000DF91CF910895CF93DF9300D0CDB7DEB740
:1006900020E429836A83BE016F5F7F4F0E9441027D
:1006A00081E090E00F900F90DF91CF91089590E05E
:1006B00080E0089585ED8093BC008091D9019091F0
:1006C000DA01A091DB01B091DC010796A11DB11DFB
:1006D00023E0B695A795979587952A95D1F7209110
:1006E000BC0024FD03C01092D70108954091D901A8
:1006F0005091DA016091DB017091DC01452B462BB2
:10070000472B69F30097A105B10541F025E32A9530
:10071000F1F700000197A109B109E1CF8091D8015B
:100720000C949A011F920F920FB60F9211242F93DF
:100730003F938F939F93AF93BF938091AD0190911F
:10074000AE01A091AF01B091B0013091A20123E0C0
:10075000230F2D3758F50196A11DB11D2093A2013D
:100760008093AD019093AE01A093AF01B093B0011F
:100770008091A3019091A401A091A501B091A6013F
:100780000196A11DB11D8093A3019093A401A09394
:10079000A501B093A601BF91AF919F918F913F9119
:1007A0002F910F900FBE0F901F90189526E8230FE2
:1007B0000296A11DB11DD2CF1F920F920FB60F92BC
:1007C00011242F933F934F935F936F937F938F9356
:1007D0009F93AF93BF93EF93FF938091B900887F6E
:1007E000803609F44AC0F0F5883209F4A7C018F53C
:1007F000803109F49BC0B8F4882309F4F9C088302B
:1008000009F494C0FF91EF91BF91AF919F918F91A7
:100810007F916F915F914F913F912F910F900FBEFC
:100820000F901F901895883109F488C0803251F7D5
:100830008093D50114C0803409F49DC040F4803306
:10084000B9F38833F9F68093D50185ECB0C08035D3
:1008500009F485C0883509F496C0883499F60E9459
:100860005A03D0CF883909F48CC038F5883729F07D
:1008700050F4883611F0803729F683E08093D70151
:100880001092A10157C0883809F47BC0803919F053
:10089000803809F0B7CF8091A101803208F071C093
:1008A000E091A10181E08E0F8093A1018091BB00B6
:1008B000F0E0EF57FE4F80833DC0803B39F0E0F41D
:1008C000803A09F479C0883A09F09CCF84E080939B
:1008D000D7011092800110927F01E091A901F0915F
:1008E000AA01099580917F0181110FC081E0809359
:1008F0007F0110925F0109C0803C09F4A6CF883CBB
:1009000009F4A3CF883B09F07DCFE091800181E01D
:100910008E0F80938001F0E0E15AFE4F808180933A
:10092000BB009091800180917F0129C08091B2012C
:100930008093BB0085EC8093BC0064CF9091D40180
:100940008091D301981758F5E091D40181E08E0F82
:100950008093D401F0E0ED54FE4F8081E9CFE09127
:10096000D40181E08E0F8093D4018091BB00F0E030
:10097000ED54FE4F80839091D4018091D30198175C
:10098000C8F285E8D8CFE091D40181E08E0F809342
:10099000D4018091BB00F0E0ED54FE4F8083809144
:1009A000D60181115CCF81E08093B10184EA80930C
:1009B000BC001092D70126CF85EC8093BC0010922A
:1009C000D7018091A101803230F4E091A101F0E0E3
:1009D000EF57FE4F10826091A10170E0E091A701F6
:1009E000F091A80181E891E009951092A1010ACF48
:1009F0001092D50134CFE1E0F2E01382128288EE4A
:100A000093E0A0E0B0E084839583A683B78384E07D
:100A100091E091838083EDE0F2E01382128286E11F
:100A200091E0918380838EE3848380E1808782E0FC
:100A30008187128688E083870895CF93DF93CDB7AF
:100A4000DEB7A1970FB6F894DEBF0FBECDBF789486
:100A500084B5826084BD84B5816084BD85B58260C3
:100A600085BD85B5816085BD80916E008160809374
:100A70006E001092810080918100826080938100DD
:100A800080918100816080938100809180008160ED
:100A9000809380008091B10084608093B100809148
:100AA000B00081608093B00080917A008460809370
:100AB0007A0080917A00826080937A0080917A0037
:100AC000816080937A0080917A00806880937A00B8
:100AD0001092C1001092AC011092AB011092FE0175
:100AE0001092FD010E947C0182E890E09093AA019F
:100AF0008093A90183E890E09093A8018093A701D7
:100B000080E18093120280911602823018F098E101
:100B10009093120290911702992339F0813029F4B1
:100B20008091120284608093120262E370E080E0A0
:100B300090E00E9422018091120280620E942F03A5
:100B40008BE496E40197F1F78091120280620E9493
:100B50002F0383E592E00197F1F780911202806202
:100B60000E942F038091120280620E942F0384E072
:100B7000809313028CE00E942F0381E00E942F03D8
:100B80000BE31FE1C8010197F1F782E080931402A3
:100B900086E00E942F0382E00E942F03C801019784
:100BA000F1F781E00E942F03C8010197F1F710E8E7
:100BB00019831A83BE016F5F7F4F8DE092E00E9420
:100BC00041024FE050E06EE171E08DE092E00E9462
:100BD000840068EE73E080E090E00E9422011983B7
:100BE00080EC8A83BE016F5F7F4F8DE092E00E94B0
:100BF00041024FE050E06EE271E08DE092E00E9431
:100C0000840068EE73E080E090E00E94220180E8BA
:100C1000F82E90ECE92E28EE822E23E0922EA12CC5
:100C2000B12C3AE0432E512C612C712C40E0C42EA3
:100C300040E0D42EF982EA82BE016F5F7F4F8DE0E3
:100C400092E00E9441022FB7F8946091AD0170913B
:100C5000AE018091AF019091B0012FBFA501940129
:100C60000E94600619A28E010F5D1F4FCA01B901D3
:100C7000A30192010E946006605DF80162938F01FA
:100C8000211531054105510589F7309761F0019033
:100C90000020E9F73197AF01401B510BB8018DE0FF
:100CA00092E00E94840064E670E080E090E00E94A0
:100CB0002201C114D10409F4BDCF0E940000BACFB3
:100CC000A1E21A2EAA1BBB1BFD010DC0AA1FBB1F50
:100CD000EE1FFF1FA217B307E407F50720F0A21BC2
:100CE000B30BE40BF50B661F771F881F991F1A942F
:100CF00069F760957095809590959B01AC01BD0159
:100D0000CF010895EE0FFF1F0590F491E02D099497
:040D1000F894FFCF85
:100D1400000000001202E5015703BB01DE01CB0114
:100D2400BC010000000043038400570354014C43FA
:100D34004420444953504C4159204A4844003132DC
:0E0D440031342042592047494F524F434B0053
:00000001FF
