:100000000C9458000C9480000C9480000C94800098
:100010000C9480000C9480000C9480000C94800060
:100020000C9480000C9480000C9480000C94800050
:100030000C9480000C9480000C9480000C94800040
:100040000C949F050C9480000C946D050C9447054E
:100050000C9480000C9480000C9480000C94800020
:100060000C94E9050C948000000000002500280095
:100070002B00040404040404040402020202020229
:10008000030303030303010204081020408001025C
:1000900004081020010204081020000000080002DB
:1000A0000100000304070000000000000000080732
:1000B00011241FBECFEFD8E0DEBFCDBF11E0A0E01E
:1000C000B1E0E8E2F4E102C005900D92AA3EB1076A
:1000D000D9F723E0AAEEB1E001C01D92A436B20721
:1000E000E1F710E0C8E5D0E004C02197FE010E94CE
:1000F0000C0AC735D107C9F70E9457070C94120A9A
:100100000C94000008950895AF92BF92CF92DF92B1
:10011000EF92FF920F931F93CF93DF936C017B01BC
:100120008B01040F151FEB015E01AE18BF08C0174D
:10013000D10759F06991D601ED91FC910190F081C0
:10014000E02DC6010995892B79F7C501DF91CF9183
:100150001F910F91FF90EF90DF90CF90BF90AF90E5
:100160000895FC01538D448D252F30E0842F90E0BD
:10017000821B930B541710F0CF96089501970895A2
:10018000FC01918D828D981761F0A28DAE0FBF2F6B
:10019000B11D5D968C91928D9F5F9F73928F90E0C1
:1001A00008958FEF9FEF0895FC01918D828D981730
:1001B00031F0828DE80FF11D858D90E008958FEF6D
:1001C0009FEF0895FC01918D228D892F90E0805C36
:1001D0009F4F821B91098F73992708958DEA92E0B2
:1001E0000E94E20021E0892B09F420E0822F08958B
:1001F00080E090E0892B29F00E94EE0081110C94A0
:1002000000000895FC01A48DA80FB92FB11DA35AB9
:10021000BF4F2C91848D90E001968F739927848F26
:10022000A689B7892C93A089B1898C918370806449
:100230008C93938D848D981306C00288F389E02DEA
:1002400080818F7D80830895EF92FF920F931F939B
:10025000CF93DF93EC0181E0888F9B8D8C8D981379
:100260001AC0E889F989808185FF15C09FB7F89485
:10027000EE89FF896083E889F989808183708064D1
:1002800080839FBF81E090E0DF91CF911F910F911C
:10029000FF90EF900895F62E0B8D10E00F5F1F4F2B
:1002A0000F731127E02E8C8D8E110CC00FB607FC3A
:1002B000FACFE889F989808185FFF5CFCE010E94C8
:1002C0000201F1CFEB8DEC0FFD2FF11DE35AFF4F33
:1002D000F0829FB7F8940B8FEA89FB898081806256
:1002E000CFCFCF93DF93EC01888D8823B9F0AA8913
:1002F000BB89E889F9898C9185FD03C0808186FDE1
:100300000DC00FB607FCF7CF8C9185FFF2CF80812F
:1003100085FFEDCFCE010E940201E9CFDF91CF91A1
:10032000089590E0FC01E656FF4F2491FC01EA5746
:10033000FF4F3491FC01EE58FF4FE491EE23C9F0DA
:10034000222339F0233001F1A8F4213019F12230B1
:1003500029F1F0E0EE0FFF1FE859FF4FA591B4918E
:100360008FB7F894EC91611126C030953E233C93F1
:100370008FBF08952730A9F02830C9F0243049F7FD
:10038000809180008F7D03C0809180008F77809363
:100390008000DFCF84B58F7784BDDBCF84B58F7DC0
:1003A000FBCF8091B0008F778093B000D2CF809147
:1003B000B0008F7DF9CF3E2BDACF3FB7F894809114
:1003C000530290915402A0915502B091560226B565
:1003D000A89B05C02F3F19F00196A11DB11D3FBF7D
:1003E000BA2FA92F982F8827BC01CD01620F711D4C
:1003F000811D911D42E0660F771F881F991F4A9546
:10040000D1F708958F929F92AF92BF92CF92DF92D1
:10041000EF92FF924B015C010E94DD016B017C01B8
:100420000E94DD016C197D098E099F09683E7340A9
:1004300081059105A8F321E0821A9108A108B1086D
:1004400088EEC80E83E0D81EE11CF11C81149104D3
:10045000A104B10429F7FF90EF90DF90CF90BF90F7
:10046000AF909F908F90089520912B02260F3327F5
:10047000331F21323105ECF420918302FC0190E01E
:1004800080E0243069F082E00895A0912B02219150
:10049000AC01455F5D4FA40FB52FB11D2C930196A4
:1004A000861798F380912B02680F60932B0280E0EF
:1004B000089581E008951092830281E08093820282
:1004C00010925D0261E082E10E94910161E083E1AE
:1004D0000E949101E9EBF0E080818E7F8083808132
:1004E0008D7F808388E48093B80085E48093BC008E
:1004F0000895CF93DF9391E090930A028823B9F097
:10050000C091B800D091BA008091BC008A7B8093E2
:10051000BC0060E082E10E94910160E083E10E9402
:1005200091010E945B02D093BA00C093B800DF91A2
:10053000CF910895CF92DF92EF92FF920F931F9386
:10054000CF93DF93D091AC0281E0D13208F09CC010
:10055000C091AB020E94DD016B017C01809183029E
:1005600081116CC082E08093830281E080938202DB
:100570008FEF8093810210928002D0937F02ABE8CC
:10058000B2E0EFE5F2E080E0D8138DC010925E0299
:1005900080915E02CC0FC82BC0935E0280915D02F9
:1005A000813009F084C010925D020E94DD016B0170
:1005B0007C0180915E028093BB00809185029091C6
:1005C0008602A0918702B0918802892B8A2B8B2BFF
:1005D000A1F00E94DD010091850210918602209118
:1005E0008702309188026C197D098E099F090617D0
:1005F00017072807390708F442C08091BC0083FD23
:10060000D8CF85EC8093BC000E94DD016B017C019A
:1006100080918302823009F44CC0809181028F3F27
:1006200009F469C080918102803209F466C080912A
:100630008102803309F463C084E026C08091850282
:1006400090918602A0918702B0918802892B8A2B13
:100650008B2B09F483CF0E94DD010091850210915C
:10066000860220918702309188026C197D098E09DB
:100670009F09061717072807390708F06FCF8091E1
:1006800084020E94790285E010928A021092AC02E4
:1006900010928902DF91CF911F910F91FF90EF90FF
:1006A000DF90CF9008959D9191938F5F6DCF85EEF0
:1006B000A9CF8091850290918602A0918702B09186
:1006C0008802892B8A2B8B2B09F4A2CF0E94DD0193
:1006D0000091850210918602209187023091880254
:1006E0006C197D098E099F09061717072807390716
:1006F00008F08ECFC4CF80E0C7CF82E0C5CF83E0C3
:10070000C3CF0895E0915C0280915B02E81730F45A
:10071000F0E0E651FE4F808190E008958FEF9FEF6B
:10072000089590915C0280915B022FEF3FEF981744
:1007300048F4E92FF0E0E651FE4F208130E09F5F62
:1007400090935C02C901089580915B0290915C02D4
:10075000891B990B0895CF92DF92EF92FF920F932E
:100760001F93CF93DF937C01CB018A0120918902F3
:10077000222389F0EB016B01C40ED51ECC15DD05DB
:1007800069F06991D701ED91FC910190F081E02D24
:10079000C7010995F3CF642F0E943402C801DF918D
:1007A000CF911F910F91FF90EF90DF90CF90089520
:1007B000CF93DF931F92CDB7DEB769832091890273
:1007C0002223F9F02091AC02203258F021E030E0F1
:1007D000FC013383228390E080E00F90DF91CF9182
:1007E000089580918A02E82FF0E0E557FD4F998146
:1007F00090838F5F80938A028093AC0281E090E0C7
:10080000ECCF61E0CE0101960E943402F7CF34E0D4
:10081000660F771F3A95E1F741116160211164601D
:10082000FC0126813781121613060CF46860FC0166
:10083000848191E0909389028093AB0210928A02A6
:100840001092AC028AE493E00E94D8030C949A02BE
:10085000089590E080E00895FF920F931F93CF9347
:10086000DF93EC018B01F42E21E00E94070420E0CD
:100870004F2DB801CE010E9407048FE890E0019748
:10088000F1F7DF91CF911F910F91FF900895FF92A3
:100890000F931F93CF93DF938C01EB01F42E84E031
:1008A000759567958A95E1F76F707727C8010E9463
:1008B0002C04BE016F7077274F2DC801DF91CF91B7
:1008C0001F910F91FF900C942C0440E061E070E0C8
:1008D00086E593E00E9447048BEF98E10197F1F7DA
:1008E0000895CF93DF93CDB7DEB728970FB6F8946E
:1008F000DEBF0FBECDBF28E0E2E0F1E0DE011196E1
:1009000001900D922A95E1F7880F991FE1E0F0E040
:10091000EC0FFD1FE80FF91F60817181606840E0F6
:1009200086E593E028960FB6F894DEBF0FBECDBFE4
:10093000DF91CF910C94470470E041E00E9447049E
:1009400081E090E00895FB0101900020E9F73197E4
:10095000AF01461B570BDC01ED91FC910280F38146
:10096000E02D0994CF93DF93BC018DEA92E00E94C1
:10097000A304EC016AE371E08DEA92E00E94A30413
:100980008C0F9D1FDF91CF9108958F929F92AF9210
:10099000BF92EF92FF920F931F93CF93DF93CDB748
:1009A000DEB7A1970FB6F894DEBF0FBECDBF7C01B6
:1009B0009B01770F440B550B19A28E010F5D1F4F42
:1009C0008AE0882E912CA12CB12CCA01B901A50175
:1009D00094010E94D609605DF80162938F01211590
:1009E00031054105510589F790E080E0309721F00D
:1009F000C701BF010E94A304A1960FB6F894DEBF01
:100A00000FBECDBFDF91CF911F910F91FF90EF905F
:100A1000BF90AF909F908F9008950C94A30485EDA4
:100A20008093BC008091850290918602A0918702FC
:100A3000B09188020796A11DB11D23E0B695A79538
:100A4000979587952A95D1F72091BC0024FD03C086
:100A50001092830208954091850250918602609120
:100A6000870270918802452B462B472B69F300972C
:100A7000A105B10541F025E32A95F1F700000197A2
:100A8000A109B109E1CF809184020C9479021F92EF
:100A90000F920FB60F9211242F933F934F935F93B2
:100AA0006F937F938F939F93AF93BF93EF93FF9336
:100AB0008DEA92E00E940201FF91EF91BF91AF9108
:100AC0009F918F917F916F915F914F913F912F9166
:100AD0000F900FBE0F901F9018951F920F920FB698
:100AE0000F9211242F938F939F93EF93FF93E09195
:100AF000BD02F091BE028081E091C302F091C40278
:100B000082FD1BC090818091C6028F5F8F73209100
:100B1000C702821741F0E091C602F0E0E355FD4FB5
:100B2000958F8093C602FF91EF919F918F912F91A6
:100B30000F900FBE0F901F9018958081F4CF1F92D9
:100B40000F920FB60F9211242F933F938F939F9381
:100B5000AF93BF9380914F0290915002A0915102A8
:100B6000B091520230914E0223E0230F2D3758F5F9
:100B70000196A11DB11D20934E0280934F029093C8
:100B80005002A0935102B09352028091530290916F
:100B90005402A0915502B09156020196A11DB11DBB
:100BA0008093530290935402A0935502B09356023F
:100BB000BF91AF919F918F913F912F910F900FBE59
:100BC0000F901F90189526E8230F0296A11DB11DC6
:100BD000D2CF1F920F920FB60F9211242F933F93F3
:100BE0004F935F936F937F938F939F93AF93BF9335
:100BF000EF93FF938091B900887F803609F44AC053
:100C0000F0F5883209F4A7C018F5803109F49BC0CB
:100C1000B8F4882309F4F9C0883009F494C0FF912E
:100C2000EF91BF91AF919F918F917F916F915F9164
:100C30004F913F912F910F900FBE0F901F901895DD
:100C4000883109F488C0803251F78093810214C042
:100C5000803409F49DC040F48033B9F38833F9F649
:100C60008093810285ECB0C0803509F485C0883559
:100C700009F496C0883499F60E940F05D0CF8839C0
:100C800009F48CC038F5883729F050F4883611F013
:100C9000803729F683E08093830210924D0257C07B
:100CA000883809F47BC0803919F0803809F0B7CF53
:100CB00080914D02803208F071C0E0914D0281E0D8
:100CC0008E0F80934D028091BB00F0E0E35DFD4FFD
:100CD00080833DC0803B39F0E0F4803A09F479C06C
:100CE000883A09F09CCF84E08093830210922C0212
:100CF00010922B02E0915902F0915A0209958091CD
:100D00002B0281110FC081E080932B0210920B0205
:100D100009C0803C09F4A6CF883C09F4A3CF883BE6
:100D200009F07DCFE0912C0281E08E0F80932C02A0
:100D3000F0E0E55FFD4F80818093BB0090912C0235
:100D400080912B0229C080915E028093BB0085ECCC
:100D50008093BC0064CF9091800280917F029817AD
:100D600058F5E091800281E08E0F80938002F0E0E0
:100D7000E15AFD4F8081E9CFE091800281E08E0F42
:100D8000809380028091BB00F0E0E15AFD4F8083A8
:100D90009091800280917F029817C8F285E8D8CFA1
:100DA000E091800281E08E0F809380028091BB00F1
:100DB000F0E0E15AFD4F80838091820281115CCF87
:100DC00081E080935D0284EA8093BC0010928302EC
:100DD00026CF85EC8093BC001092830280914D0257
:100DE000803230F4E0914D02F0E0E35DFD4F10827F
:100DF00060914D0270E0E0915702F09158028DE24F
:100E000092E0099510924D020ACF1092810234CFE0
:100E1000EDEAF2E01382128288EE93E0A0E0B0E007
:100E200084839583A683B7832EE031E031832083CA
:100E300025EC30E03587248724EC30E0378726879F
:100E400020EC30E0318B208B21EC30E0338B228B97
:100E500022EC30E0358B248B26EC30E0378B268B70
:100E6000118E128E138E148EEAE4F3E01382128236
:100E700084839583A683B78380E291E09183808306
:100E8000E6E5F3E01382128282E391E091838083AE
:100E900087E290E0958384831782168282E090E057
:100EA0009387828784E090E095878487089578947B
:100EB00084B5826084BD84B5816084BD85B582605F
:100EC00085BD85B5816085BD80916E008160809310
:100ED0006E00109281008091810082608093810079
:100EE0008091810081608093810080918000816089
:100EF000809380008091B10084608093B1008091E4
:100F0000B00081608093B00080917A00846080930B
:100F10007A0080917A00826080937A0080917A00D2
:100F2000816080937A0080917A00806880937A0053
:100F30001092C100E091BD02F091BE0282E0808378
:100F4000E091B902F091BA021082E091BB02F091F7
:100F5000BC0280E180831092C502E091C102F09151
:100F6000C20286E08083E091BF02F091C0028081DE
:100F700080618083E091BF02F091C002808188602F
:100F80008083E091BF02F091C002808180688083FD
:100F9000E091BF02F091C00280818F7D80838DE35C
:100FA00091E00E94B20484E491E00E94B2041092A5
:100FB0005C0210925B0210928A021092AC020E94B4
:100FC0005B0222E8E22E20E0F22EF0925A02E0923A
:100FD000590203E810E0109358020093570281E091
:100FE0008093890287E28093AB020E949A02C82F05
:100FF000D0E068E571E08DEA92E00E940D05BE0147
:101000008DEA92E00E94C504CD2B09F0FAC080E67B
:1010100091E00E94B2041092010110920001C2E01E
:10102000D0E0D0935F03C0935E0310925C021092F5
:101030005B0210928A021092AC020E945B02F09254
:101040005A02E0925902109358020093570220E08E
:1010500040E070E060E086E593E00E9407048BE3E7
:101060009DE00197F1F784E090E090936303809313
:101070006203D0936103C093600340E063E070E0DB
:1010800086E593E00E942C048BE496E40197F1F747
:1010900040E063E070E086E593E00E942C04CBE141
:1010A000D3E0CE010197F1F740E063E070E086E520
:1010B00093E00E942C042197F1F740E062E070E099
:1010C00086E593E00E942C0440E068E270E086E54B
:1010D00093E00E9447046091620370916303CB0127
:1010E000846090936303809362036C6040E086E5C4
:1010F00093E00E9447040E94650460916003709130
:101100006103CB018260909361038093600366600A
:1011100040E086E593E00E9447048BEFC82E88E10B
:10112000D82E00E110E090E0E92E90E0F92ECFEF0C
:10113000D0E060910001709101016115710509F025
:1011400065C0D0935D03C0935C0320E041E070E094
:1011500060E086E593E00E94070440E062E070E012
:1011600086E593E00E944704C6010197F1F70E94CB
:1011700065046EE771E086E593E00E940D0568EE78
:1011800073E080E090E00E94020210925D031092F2
:101190005C0320E041E070E060E086E593E00E94BF
:1011A000070460E971E080E090E00E940202D093C1
:1011B0005D03C0935C0320E041E070E060E086E501
:1011C00093E00E94070468E775E080E090E00E94E9
:1011D000020280910001909101010196B8010E94E4
:1011E000C2099093010180930001E114F10409F414
:1011F000A0CF0E94EE00882309F49BCF0E9400003C
:1012000098CF8DE691E00E94B20487CF61307105DE
:10121000C9F40E94650468E871E086E593E00E94E5
:101220000D056091620370916303CB01826090931E
:101230006303809362036A6040E086E593E00E9466
:101240004704C1CF62307105A1F40E94650462E9D0
:1012500071E086E593E00E940D0560916203709154
:101260006303CB01816090936303809362036960A1
:10127000E3CF6330710511F50E9465046FE971E0F9
:1012800086E593E00E940D0560916203709163030F
:101290006E7F7093630360936203686040E086E54D
:1012A00093E00E94470460916203709163036D7F35
:1012B00070936303609362036860BECF643071050E
:1012C00071F40E9465046AEA71E086E593E00E9489
:1012D0000D0560916203709163036B7FE9CF653008
:1012E0007105A1F40E94650466EB71E086E593E068
:1012F0000E940D056091620370916303CB018460CD
:1013000090936303809362036C6096CF673071059E
:10131000B9F40E94650490E080E00E94710461ECE1
:1013200071E086E593E00E940D0581E090E00E9467
:10133000710461ED71E086E593E00E940D0543CFF5
:10134000CB010897039720F440E068E170E075CF87
:101350006B30710521F440E06CE170E06ECF6C30D1
:10136000710529F40E94650462EE71E0E4CF6D30EE
:1013700071050CF428CF6D50710986E593E00E9449
:10138000C50421CF97FB072E16F4009407D077FDF4
:1013900009D00E94F80907FC05D03EF4909581958C
:1013A0009F4F0895709561957F4F0895A1E21A2E81
:1013B000AA1BBB1BFD010DC0AA1FBB1FEE1FFF1FF9
:1013C000A217B307E407F50720F0A21BB30BE40B49
:1013D000F50B661F771F881F991F1A9469F7609590
:1013E0007095809590959B01AC01BD01CF0108954A
:1013F000AA1BBB1B51E107C0AA1FBB1FA617B7073B
:1014000010F0A61BB70B881F991F5A95A9F7809556
:101410009095BC01CD010895EE0FFF1F0590F4914A
:08142000E02D0994F894FFCFC0
:10142800FFFF0000400014005400000000002401E9
:101438008400B1007101E200C000D4000000000087
:10144800D803AB0329048103A4039103820300009A
:1014580000009C048400290428040D0A004C43441D
:101468002E2E2E00446F73653A20636865636B20E7
:10147800666F72204C4344004572726F723A2000C6
:101488003A204C434420666F756E642E003A204C17
:101498004344206E6F7420666F756E642E00486535
:1014A8006C6C6F204C434400437572736F72204F0D
:1014B8006E00437572736F7220426C696E6B0043E5
:1014C8007572736F72204F464600446973706C6181
:1014D80079204F666600446973706C6179204F6E9D
:1014E800002A2A2A206669727374206C696E652E38
:1014F800002A2A2A207365636F6E64206C696E6502
:0A1508002E0077726974652D000053
:00000001FF
